:100000000C9458060C949F060C949F060C949F0623
:100010000C949F060C949F060C949F060C949F06CC
:100020000C949F060C949F060C94BB2A0C948F2B67
:100030000C94D81C0C949F060C949F060C949F065D
:100040000C949F060C949F060C949F060C949F069C
:100050000C949F060C942F1D0C949F060C949F06E5
:100060000C949F060C949F060C949F060C949F067C
:100070000C949F060C949F060C949F060C949F066C
:100080000C949F060C949F060C949F060C949F065C
:100090000C949E0F0C949F060C949F060C949F0644
:1000A0000C949F060C949F060C949F060000290058
:1000B000350000003000E000E20032001E001400B5
:1000C00004001D001F001A0016001B00200008007D
:1000D0000700060021001500090019002200170082
:1000E0000A0005004D004E004A004B003900015344
:1000F000E1002C0000004C002B00000000008900F3
:100100002E0000002D002F00340087002700130070
:1001100033003800260012000F00370025000C00C5
:100120000E003600240018000D00100023001C00F3
:100130000B001100500051004F0052008800940045
:10014000E5002A00000049005800000000000100FE
:100150000100000000000100010000003A00000062
:10016000000000003B000000000000003C00000018
:10017000000000003D000000000000003E00000004
:100180000000000001000100010001000100010069
:100190000100010000000100010000000000440017
:1001A0004500000055005600530000004300540075
:1001B00055005700420061005E005B004100600096
:1001C0005D005A0040005F005C0059003F00630082
:1001D0008C0062000100010001000100010001002B
:1001E0000100010000006700010000004445425585
:1001F000473A2064697361626C65642E0A00444565
:100200004255473A20656E61626C65642E0A000AA9
:100210000025303862003A200025303258000A723A
:100220002F632030313233343536370A000A002547
:1002300030325820006B6579626F6172645F72655D
:10024000706F72743A20000A0025303258006B65D6
:1002500079626F6172645F7365745F6C65643A2084
:1002600000290A002575002F002575005D2800254E
:10027000640020002564002000256400200025641F
:10028000007C0025303258006D6F7573656B6579A1
:10029000205B62746E7C782079207620685D2872FD
:1002A00065702F61636C293A205B006D6B5F776826
:1002B00065656C5F74696D655F746F5F6D617820F3
:1002C0003D2025640A006D6B5F776865656C5F6D26
:1002D00061785F7370656564203D2025640A006D58
:1002E0006B5F74696D655F746F5F6D6178203D2031
:1002F00025640A006D6B5F6D61785F73706565647E
:10030000203D2025640A006D6B5F696E746572760E
:10031000616C203D2025640A006D6B5F64656C6133
:1003200079203D2025640A006D6B5F776865656CF8
:100330005F74696D655F746F5F6D6178203D202526
:10034000640A006D6B5F776865656C5F6D61785FEF
:100350007370656564203D2025640A006D6B5F74D1
:10036000696D655F746F5F6D6178203D2025640A5B
:10037000006D6B5F6D61785F7370656564203D2013
:1003800025640A006D6B5F696E74657276616C201E
:100390003D2025640A006D6B5F64656C6179203DCA
:1003A0002025640A000A00257500363A2077686522
:1003B000656C5F74696D655F746F5F6D61783A201D
:1003C000000A00257500353A20776865656C5F6D19
:1003D00061785F73706565643A20000A00257500D6
:1003E000343A2074696D655F746F5F6D61783A208F
:1003F000000A00257500333A206D61785F737065DF
:1004000065643A20000A00257500323A20696E744E
:10041000657276616C286D73293A20000A00257593
:1004200000313A2064656C6179282A31306D732976
:100430003A20000A092D2056616C756573202D0A3B
:10044000004D3E004D25643E20003F007365742042
:1004500064656661756C740A00433E2000776865C8
:1004600072652064656C74613A20637572736F7293
:100470003D25642C20776865656C3D25640A5365CD
:100480006520687474703A2F2F656E2E77696B69DA
:1004900070656469612E6F72672F77696B692F4D84
:1004A0006F7573655F6B6579730A000A092D204DBE
:1004B0006F7573656B6579202D0A4553432F713A2B
:1004C00009717569740A313A0964656C6179282A81
:1004D00031306D73290A323A09696E74657276613A
:1004E0006C286D73290A333A096D61785F73706502
:1004F00065640A343A0974696D655F746F5F6D6194
:10050000780A353A09776865656C5F6D61785F7365
:10051000706565640A363A09776865656C5F746969
:100520006D655F746F5F6D61780A0A703A09707269
:10053000696E742076616C7565730A643A09736537
:10054000742064656661756C74730A75703A092B62
:10055000310A646F776E3A092D310A706775703A07
:10056000092B31300A7067646F776E3A092D31308C
:100570000A0A7370656564203D2064656C746120AF
:100580002A206D61785F7370656564202A20287267
:100590006570656174202F2074696D655F746F5F8D
:1005A0006D6178290A003F004D3E2000433E200047
:1005B0004C25640A0074696D65725F72656164330D
:1005C0003228293A202530346C580A006B6579624C
:1005D0006F6172645F69646C653A2025580A006B2C
:1005E0006579626F6172645F70726F746F636F6C54
:1005F0003A2025580A00686F73745F6B6579626FE3
:100600006172645F6C65647328293A2025580A007A
:100610000A092D20537461747573202D0A00474315
:10062000433A20382E332E30204156522D4C494229
:10063000433A20322E302E30204156525F415243F1
:10064000483A20617672350A004F5054494F4E5354
:100650003A204C554641204D4F5553454B45592066
:1006600045585452414B455920434F4E534F4C45EA
:1006700020434F4D4D414E4420343039360A00421C
:1006800055494C443A2022302E392E31302D31300C
:100690002D6763636234623822202831343A303265
:1006A0003A3539204A756E203132203230323029C5
:1006B0000A005649443A203078464545442873613B
:1006C00074726F6D6929205049443A203078303077
:1006D000303028746C73706C697431382920564539
:1006E000523A203078303030310A00444553433A92
:1006F00020412073706C697465206B6579626F614D
:10070000726420666F722054524F4E2066616E0AEA
:10071000000A092D2056657273696F6E202D0A003C
:100720000A092D20436F6E736F6C65202D0A4553A7
:10073000432F713A09717569740A6D3A096D6F75C5
:1007400073656B65790A000A092D204D616769633D
:10075000202D0A443A094465627567204D6573731C
:1007600061676520546F67676C650A583A094D6187
:1007700074726978204465627567204D6F646520E6
:10078000546F67676C65202D2053686F77206B6509
:10079000797072657373657320696E206D61747210
:1007A000697820677269640A4B3A094B6579626F10
:1007B00061726420446562756720546F67676C6579
:1007C000202D2053686F77206B6579707265737385
:1007D000207265706F72740A4D3A094465627567DC
:1007E000204D6F75736520546F67676C650A563AC4
:1007F0000956657273696F6E0A533A0953746174CE
:1008000075730A433A0941637469766174652043DC
:100810006F6E736F6C65204D6F64650A46312D46AF
:1008200031303A0953776974636820746F204C61E2
:1008300079657220302D392028463130203D204CFA
:1008400030290A302D393A09537769746368207466
:100850006F204C6179657220302D390A475241561C
:10086000453A0953776974636820746F204C617945
:10087000657220302028616C7465726E6174652920
:100880000A423A094A756D7020746F20426F6F7486
:100890006C6F616465720A4553433A094A756D701D
:1008A00020746F20426F6F746C6F616465722028D2
:1008B000616C7465726E617465290A453A095072FB
:1008C000696E7420454550524F4D205365747469CC
:1008D0006E67730A4253504143453A09436C656160
:1008E0007220454550524F4D0A000A002575002ED2
:1008F0006E6B726F3A20000A002575002E737761C7
:10090000705F6261636B736C6173685F6261636B7C
:1009100073706163653A20000A002575002E7377B5
:1009200061705F67726176655F6573633A20000A84
:10093000002575002E6E6F5F6775693A20000A000A
:100940002575002E737761705F72616C745F7267DA
:1009500075693A20000A002575002E737761705F73
:100960006C616C745F6C6775693A20000A002575CC
:10097000002E737761705F7263746C5F7267756964
:100980003A20000A002575002E737761705F6C6352
:10099000746C5F6C6775693A20000A002575002E3B
:1009A000636170736C6F636B5F746F5F636F6E74A2
:1009B000726F6C3A20000A002575002E7377617003
:1009C0005F636F6E74726F6C5F636170736C6F6383
:1009D0006B3A20000A0025303258006B65796D6152
:1009E000705F636F6E6669672E7261773A20000AE6
:1009F000002575002E6D6F7573653A20000A00257D
:100A000075002E6B6579626F6172643A20000A008E
:100A10002575002E6D61747269783A20000A0025F0
:100A200075002E656E61626C653A20000A00253003
:100A300032580064656275675F636F6E6669672E22
:100A40007261773A20000A00257500646566617559
:100A50006C745F6C617965723A20003F000A6D6FBB
:100A60007573653A206F66660A000A6D6F75736567
:100A70003A206F6E0A000A6B6579626F6172643AA0
:100A8000206F66660A000A6B6579626F6172643A6C
:100A9000206F6E0A000A6D61747269783A206F6681
:100AA000660A000A6D61747269783A206F6E0A00F6
:100AB0000A64656275673A206F66660A000A6465B3
:100AC0006275673A206F6E0A000A0A4A756D70698E
:100AD0006E6720746F20626F6F746C6F61646572F3
:100AE0002E2E2E2000433E2000436C656172696EFD
:100AF0006720454550524F4D0A006565636F6E662D
:100B000069673A0A005B735D004B6579626F6172D9
:100B1000642073746172742E0A005B575D005B532E
:100B20005D005B525D005B445D005B435D00040360
:100B300030000000140374006C00730070006C003F
:100B40006900740031003800000010037300610078
:100B5000740072006F006D00690000000403090456
:100B600009025B00030100A0FA090400000103016F
:100B7000010009211101000122400007058103083D
:100B8000000A09040100010300000009211101000D
:100B9000012281000705820320000A0904020002E5
:100BA0000300000009211101000122220007058332
:100BB00003200001070503032000011201100100BA
:100BC000000008EDFE00000100010203010631FFF4
:100BD0000974A1010975150026FF0095207508818B
:100BE000020976150026FF00952075089102C005C0
:100BF000010902A10185020901A1000509190129C4
:100C00000515002501950575018102950175038182
:100C1000010501093009311581257F95027508818B
:100C20000609381581257F950175088106050C0A8E
:100C300038021581257F950175088106C0C0050120
:100C40000980A101850319012AB700150126B70003
:100C5000950175108100C0050C0901A101850419D9
:100C6000012AA002150126A002950175108100C07D
:100C700005010906A101050719E029E7150025016D
:100C80009508750181029501750881010507190014
:100C900029FF150026FF0095067508810005081933
:100CA000012905950575019102950175039101C012
:100CB00011241FBECFEFDAE0DEBFCDBF04B603FEC6
:100CC00027C08091CF029091D002A091D102B09123
:100CD000D2028730904BA740B04BD1F41092CF0294
:100CE0001092D0021092D1021092D20214BE84B798
:100CF000877F84BF0FB6F894A895809160008861C3
:100D000080936000109260000FBEE0E0F8E3099568
:100D100011E0A0E0B1E0ECECFBE502C005900D9223
:100D2000AA3AB107D9F722E0AAEAB1E001C01D92C0
:100D3000AF3CB207E1F70E94E1270C94BC2D0C9464
:100D40000000FF93EF93E091AA01F091AB0130977F
:100D500009F00995EF91FF910895FC01859180308C
:100D600011F0EFDFFBCF0895FF27E0E230E247FF0D
:100D70000CC0419597FF09C0EDE260957095809594
:100D80009095611D711D811D911D27FF02C0219548
:100D900030E350E2AA27660F771F881F991FAA1F0A
:100DA000A41710F0A41B63955A95A9F7AA3008F070
:100DB000A95FA05DAF93F39561157105810591055C
:100DC00041F7ED3211F4EF93F395F21718F43F93D6
:100DD000F395FBCF8F91B5DFFA95E1F70895E9918F
:100DE000F9918591803021F0853219F0AADFF9CF91
:100DF000089520E0E89455915532C1F3503311F431
:100E0000689455915A3348F4505390F3220F022EB0
:100E1000220F220F200D250FF4CF0EF4219589917A
:100E20009991533619F3533729F1533559F1BC01D0
:100E300088279927E8945C3621F4899199916894E0
:100E40005591543639F446EF7EF077FF0DC08FEFA1
:100E50009FEF0AC055374AE039F0583540E121F09C
:100E6000523642E009F00895FF93EF937DDFEF9152
:100E7000FF91B7CFFF93EF93FC0181918030B9F3DD
:100E800060DFFBCFFF93EF9368DFF1CFDF93CF936A
:100E9000CDB7DEB72596A3DFCF91DF91089581E02E
:100EA000089581E008950C94510708950C94550716
:100EB0001F93CF93DF9300D000D00F92CDB7DEB752
:100EC00049835A836B833091D20189819A81311190
:100ED0001DC06623B9F02223A9F00E942C1A182FF6
:100EE000682F89819A810E94D91969817A81812F1D
:100EF0000F900F900F900F900F90DF91CF911F9157
:100F00000C941E080E94051A182FEFCF0E942C1A6D
:100F100069817A81EDCFFC01262F40815181628168
:100F2000738184810C945807CF93DF93EC0160E0C8
:100F30000E948B07BE01DF91CF910C9456070E944F
:100F40008D1B811102C00E942A1C0C942A0A0C9449
:100F50002D0A08950C94A90781E008950C94AC071C
:100F6000CF93C82F0E94AA078C2FCF910C94AE0765
:100F700008950E9443150E94B8072FEF84E39CE078
:100F8000215080409040E1F700C000000C94531DB8
:100F90000F931F93CF93DF93EC0161E00E948B07C7
:100FA0008C01BE010E945307882311F1BE01C801C4
:100FB0000E94E20C8823E1F0BE01C8010E94230DCB
:100FC0008823B1F0BE01C8010E94460E882381F03B
:100FD0008A81882341F101308CE5180779F00E3DB4
:100FE0008CE51807E9F001151C45E9F40E94B907E2
:100FF00080E0DF91CF911F910F910895909152025F
:10100000892F8E7F90FF81608093520280FF05C000
:101010008EEF91E00E94AD06EBCF8CEE91E0FACF1F
:101020000E942A1CE5CFCE01DF91CF911F910F9135
:101030000C944F0790E080E008950895E72FF0E0CA
:1010400094E1899FE00DF11D1124EE0FFF1FEE0FBB
:10105000FF1FE60FF11DEE0FFF1FE455FF4F8591B7
:1010600094910895FC01EE0FFF1FE15FFD4F859104
:1010700094910895CF93DF930E941E080E944F0918
:10108000EC01811520E5920708F042C0811530E49B
:10109000930708F0BDC0883E910528F5803E910574
:1010A00008F09DC0883A910588F4853A910508F0CA
:1010B0008FC08130910509F492C0009709F48FC068
:1010C000049708F08CC0D0E0C0E089C08F3B910548
:1010D00008F489C0805C9109C03CD105A0F30E944E
:1010E0003208EC017CC08115904250F4C11581E0BA
:1010F000D80708F074C0C03FD10528F3D0656FC091
:10110000C11590E3D90708F079C0CE019F70E7CFF1
:10111000811525E5920758F5811534E5930708F008
:10112000A6C0811542E5940750F4C11581E5D807A2
:1011300008F471C0DC2FCC27C16FD06A50C0982F43
:10114000969596959E0123703327C115D34508F0D7
:101150007FC0C1E0D0E002C0CC0FDD1F2A95E2F7CE
:1011600020E2929FC0011124C82BD92B6FC0C1155A
:1011700089E5D807A8F4C11598E5D90708F07CC01F
:10118000C11526E5D20708F09ECF8C2F0E94E609F4
:10119000C82FD0E0DC2FCC27CC27DF71D0621FC056
:1011A000C1153AE5D30708F46CC0CE0190568115FD
:1011B000904208F088CF8D2F8F710E94E60990E051
:1011C000982F882788279F719C012C2BE901E6CF57
:1011D000C55AD0E0C45ADE4FC881D0E0D064CE01F9
:1011E000DF91CF910895C85AD0E0CC0FDD1FC25DCA
:1011F000DE4F0990D881C02DD464F1CFCE0199275C
:10120000D3FF03C0EC01D86CEACFEC01D06CE7CF80
:10121000DF70D06AE4CFCE01E4E096958795EA9539
:10122000E1F783702C2F26952695237090E2299F55
:1012300090011124382B8C2F8370C1E0D0E002C0C4
:10124000CC0FDD1F8A95E2F7C22BD32BDC68C7CF0A
:10125000C1E0D0E002C0CC0FDD1F2A95E2F730E2FA
:10126000939FC0011124C82BD92BDA68B8CFD82F8F
:10127000CC27C46FD06AB3CFDC2FCC27C06FD06A25
:10128000AECF8C2F8F700E94E60934E0D695C795BB
:101290003A95E1F7CF709C2FEC01D069A0CF82384E
:1012A0009105B1F1B0F48133910509F475C048F4AA
:1012B0008932910509F469C08A32910509F473C035
:1012C00008958533910509F459C08933910501F1D9
:1012D0000895833E9105A9F138F4803E9105F9F017
:1012E000823E910549F10895863E9105A9F1873E18
:1012F0009105C9F1843E910519F52091C10221FFA4
:101300001FC08091C00284FD14C087EE90E0089554
:101310002091C0022370A1F080EE90E0089520910A
:10132000C00220FD47C03091C10230FF09C024FF38
:1013300044C090E080E004C02091C00222FDF7CFBD
:1013400008952091C00222FD3BC03091C10230FDC2
:10135000E3CF24FFF5CFEDCF2091C00223FFF0CFE4
:1013600024FDE7CFD2CF2091C00223FD2CC03091C5
:10137000C10231FFEECF84EE90E008952091C002CB
:1013800025FFDECF89E290E008952091C00225FF7D
:10139000D7CF85E390E008952091C00226FFD0CFFB
:1013A0008AE290E008952091C00226FFC9CF81E330
:1013B00090E0089589E390E0089583EE90E0089529
:1013C00082EE90E0089586EE90E008959091C0023C
:1013D00092FF06C0282F28712830F9F4877F846097
:1013E00093FF06C0282F28712831F1F4877E84618D
:1013F0002091C10220FF06C0382F38713830D9F44F
:10140000877F816021FF06C0282F28712831D1F401
:10141000877E816194FD877E0895282F2471243072
:10142000F9F68B7F8860DCCF282F2471243101F7F7
:101430008B7E8861DDCF382F3171313019F78E7F87
:101440008860E0CF282F2171213121F78E7E8861BD
:10145000E1CF08950C94290A08950C942C0AE82FE2
:10146000F0E0EA57FD4F80810895CF92DF92EF922E
:10147000FF920F931F93CF93DF938EE192E00E9430
:10148000AD0686E8E82E82E0F82ED0E0C0E099E1D3
:10149000C92E92E0D92E01E112E0DF93CF93DF92C3
:1014A000CF920E94460786E192E00E94AD06F701C6
:1014B00081917F010E94751B1F928F931F930F9341
:1014C0000E9446078FE092E00E94AD0621968DB7FC
:1014D0009EB708960FB6F8949EBF0FBE8DBFC4315D
:1014E000D105D9F6DF91CF911F910F91FF90EF9029
:1014F000DF90CF90089580EA8A95F1F708950895D6
:101500001F93CF93DF93CDB7DEB764970FB6F894F0
:10151000DEBF0FBECDBF0E94470C80911801811124
:1015200031C0FE013B968AE0DF011D928A95E9F702
:1015300086EF898387EF8A8381E38B8383E38C83C0
:1015400082E38D8386E38E8385E38F8385EF8887AF
:1015500084EF898784E38A873A97A4E0B1E0CE01DB
:10156000459621912D938E179F07D9F786EC80938E
:10157000000187E98093010186E68093020184E9F6
:1015800080930301809118019AE0811190E090937B
:101590009B028AE0891B80939A02A4E0B1E04EE0AE
:1015A00051E061E070E08D91E82FE295EF70F0E09E
:1015B00011A18F709B0101C0220F8A95EAF7922F2B
:1015C0009095912391A382A1822B82A34A175B0756
:1015D00051F7A0E0B1E044E051E061E070E08D91AE
:1015E000E82FE295EF70F0E011A18F709B0101C030
:1015F000220F8A95EAF7922F9095912391A382A1C9
:10160000822B82A34A175B0751F7E2E7F2E0A6E8D4
:10161000B2E086E892E011921D928E179F07D9F7EB
:101620008AE00E94F20B0E949F0764960FB6F8941E
:10163000DEBF0FBECDBFDF91CF911F910C94510C37
:101640000E94290C882309F180919A0290E08A5720
:101650009D4F0E94580C811115C08091AC018F5F85
:101660008093AC01863060F0E0919A02F0E0EA5796
:10167000FD4F90E080E0119201968A309105D9F7F4
:101680000C94A7071092AC01FBCF80919B0290E0D5
:101690008A579D4F0E94670C0C947F0ABF92CF928D
:1016A000DF92EF92FF920F931F93CF93DF93C4E0EB
:1016B000D1E082E7C82E82E0D82E9EE0E92E91E0AC
:1016C000F92EB12C01E010E08881E82FE295EF704F
:1016D000F0E091A18F70980101C0220F8A95EAF77E
:1016E000892F822B81A39991E92FE295EF70F0E089
:1016F00022A19F70A80102C0440F551F9A95E2F7DE
:10170000CA018095822382A30E947B0AE0E0F1E077
:1017100050E040E020E03191A32FA295AF70B0E0FF
:1017200090968C9190E03F7002C0959587953A9580
:10173000E2F780FD53C0802F042E01C0880F0A9469
:10174000EAF7282B4F5F5F4F4430510521F7DE0148
:101750009E91E92FE295EF70F0E031A19F70A80112
:1017600002C0440F551F9A95E2F7CA018095832362
:1017700081A38C91E82FE295EF70F0E092A18F7039
:10178000A80101C0440F8A95EAF7892F842B82A310
:10179000F6018081281721F1208381E0B82AFFEF2C
:1017A000CF1ADF0AEC16FD0609F08ECF60919B027E
:1017B00070E06A577D4F2B2D4AE082E792E00E944D
:1017C000F30B0E94200B8B2DDF91CF911F910F9176
:1017D000FF90EF90DF90CF90BF90089580E0B1CF61
:1017E00080E0DCCF0895FF920F931F93CF93DF9398
:1017F000F82E092F162FD72FC42F222349F081E06E
:101800008093AF010E94081D9093AE018093AD01BB
:101810008091AF018823A1F08091AD019091AE013C
:101820000E94201D069760F0EF2DF02FA12FBD2FF5
:10183000CE0FDF2FD11DEC17FD0741F41092AF0141
:10184000DF91CF911F910F91FF90089581918D931A
:10185000F2CF8091B001811111C08091D8008061D8
:101860008093D8008AE18A95F1F700C09091D90061
:10187000892F817090FF82E08093B00181E0909188
:10188000B001913009F080E008950C94290C0E9479
:10189000450C809318010E94290C81110C94700C46
:1018A00008950E94290C811102C00C94720C0895B5
:1018B0000F931F9304E610E02AE030E0AC0160E0F3
:1018C00082E30E94490F81E01F910F910895FC016E
:1018D0009AE0ACE9B2E001900D929A95E1F7089593
:1018E0000C94700E82E30C94980F0F931F93CF9378
:1018F000DF93C62FD42F022FFC0182818823C9F0E9
:101900006093B3010E94081D9093B2018093B101CE
:1019100080E28C0F883008F050C0C77081E001C0B1
:10192000880FCA95EAF7DF91CF911F910F910C9420
:10193000A0121091B301161335C08091B10190919E
:10194000B2010E94201D883C910560F5C0E2CD0FD8
:101950001D17B9F080E2810F883040F4177081E0E4
:1019600001C0880F1A95EAF70E94A712C83048F400
:1019700081E09D2F977001C0880F9A95EAF70E9429
:10198000A012802F0E948D12C830B8F4D77081E069
:1019900001C0880FDA95EAF7DF91CF911F910F917F
:1019A0000C94A71280E28C0F883038F4C77081E065
:1019B00001C0880FCA95EAF7EFCFDF91CF911F9151
:1019C0000F9108959C01CB01233F4CE5340731F181
:1019D00090F4283DFCE53F07E9F0293D4CE534074C
:1019E00069F1273D3C4579F426E241EE61EE0E9423
:1019F000750C80E00895253FFCE53F07B9F090F0B5
:101A0000263F3C45B9F0FC0182818823D1F0109239
:101A1000B301089527E245EE65EEE9CF26E241EEF7
:101A200060EEE5CF27E245EE64EEE1CF26E241EE3F
:101A300062EEDDCF27E245EE66EED9CF28E241E047
:101A4000EBCF81E00895CF93DF93EC01FB0182811E
:101A5000882309F419C1C230FCE5DF07C0F1C631A3
:101A60009CE5D90730F09E012A5F3C4529303105BD
:101A700070F50E94A01B9093C1028093C002C031F8
:101A8000ECE5DE0709F4CFC008F05BC0C8308CE598
:101A9000D80709F4B6C088F5C430ECE5DE0709F4D0
:101AA000A8C0C0F4C2308CE5D80709F49CC080916E
:101AB000C0028260C330DC4509F498C08091C00246
:101AC0009091C1020E94AE1B0E94431580E0DF91FD
:101AD000CF9108958091C0028061C630ECE5DE07A9
:101AE00009F484C08091C0028860C730DC4508F4E6
:101AF0007DC08091C002806279C0CC308CE5D8076F
:101B000009F489C070F48091C0028C60CA30ECE5A1
:101B1000DE0709F46BC008F478C08091C0028E7FA4
:101B200065C0CE308CE5D80709F479C08091C00239
:101B30008B7FCF30DC4508F459C08091C0028F7E86
:101B400055C0CB3FECE5DE0709F457C030F5C33193
:101B50008CE5D80709F46FC078F4C131ECE5DE07F5
:101B600009F465C0C231DC4509F0A8CF0E944315D5
:101B70008091C0028F773AC0C5318CE5D80709F44F
:101B800062C008F476C08091C1028160CA3FDC4522
:101B900009F094CF8093C10291CFCF3FFCE5DF07DE
:101BA00009F44DC088F48091C1028D7FCD3F9CE542
:101BB000D90781F38091C1028E7FCE3FDC4550F37F
:101BC0008091C1028360E6CFC130FDE5DF0709F4F3
:101BD00059C008F444C080E0C230DD4509F06ECF42
:101BE0000E942C1C6BCF8091C00281608093C00248
:101BF00065CF8091C0028460F9CF8091C10282607C
:101C0000C9CF8091C0028064F1CF0E9443158091BA
:101C1000C0028068EBCF8091C0028D7FE7CF8091BA
:101C2000C002877FE3CF8091C0028F7DDFCF80919C
:101C3000C0028F7BDBCF8091C002837FD7CF8091A2
:101C4000C1028C7FA7CF8091C00282FB992790F9B7
:101C500021E0922790FB82F990FB83F9C7CF809116
:101C6000C102982F909591708E7F892B90FB81F9FE
:101C700091CF0E9443159091C002892F97FB87F95D
:101C80008058B4CF81E0ACCF81E021CFCF93DF93F8
:101C9000EB0186319C4511F50E94C11A9A81992366
:101CA00099F08A7A91E009F490E09093B40181115F
:101CB00009C089E20E949C1A0E940D1B80E0DF91FE
:101CC000CF91089585E3F6CF8091B401811104C0CE
:101CD00089E20E94A31AF0CF85E3FBCF81E0EFCF2A
:101CE0001092B90088E48093B8000895EF92FF92B3
:101CF0000F931F93CF93DF93182FEB011092BC002B
:101D000084EA8093BC000E94081D7C018091BC0085
:101D100087FF27C08091B900887F883029F08091A3
:101D2000B900887F8031D9F51093BB0084E8809397
:101D3000BC000E94081D8C018091BC0087FF24C05C
:101D40002091B900287F90E080E02831B1F081E057
:101D500090E0203411F490E080E091958195910914
:101D60000CC0CF3FDC0791F20E94081D8E199F091D
:101D70008C179D0758F28EEF9FEFDF91CF911F9147
:101D80000F91FF90EF900895CF3FDC07A9F20E94DA
:101D9000081D801B910B8C179D0770F2ECCF8FEF05
:101DA0009FEFEBCF0F931F93CF93DF93EB018093C4
:101DB000BB0084E88093BC000E94081D8C018091C8
:101DC000BC0087FF11C02091B900287F81E090E01E
:101DD000283211F490E080E0919581959109DF918E
:101DE000CF911F910F910895CF3FDC0741F30E94DF
:101DF000081D801B910B8C179D0708F38EEF9FEF3A
:101E0000EECF0F931F93CF93DF93EC0184EC80937D
:101E1000BC000E94081D8C018091BC0087FF08C097
:101E20008091BB0090E0DF91CF911F910F910895B9
:101E3000CF3FDC0789F30E94081D801B910B8C1794
:101E40009D0750F38EEF9FEFEECF0F931F93CF932D
:101E5000DF93EC0184E88093BC000E94081D8C0194
:101E60008091BC0087FF08C08091BB0090E0DF91AB
:101E7000CF911F910F910895CF3FDC0789F30E9406
:101E8000081D801B910B8C179D0750F38EEF9FEF61
:101E9000EECFCF92DF92EF92FF920F931F93CF93EB
:101EA000DF93F82EE62EEA016901B8010E94760E52
:101EB00097FD15C0B8018E2D0E94D20E97FD0FC060
:101EC000B8018F2D81600E94760EF12CE12C21E06B
:101ED000C21AD108EC14FD0400F597FF11C024E9E3
:101EE0002093BC001816190614F490E080E0DF91EE
:101EF000CF911F910F91FF90EF90DF90CF900895B9
:101F0000C8010E94010F97FD04C0FE01EE0DFF1DE8
:101F100080832FEFE21AF20ADDCF97FDE0CFC801F0
:101F20000E94250F97FDDBCFCC0DDD1D8883D7CF19
:101F30008093BA0085EC8093BC0008951F921FB671
:101F40001F9211248F939F93EF93FF938091B90079
:101F5000887F8038C1F038F4882309F448C080367F
:101F600079F081E022C0883A11F0883BD1F7E09106
:101F7000B601F0E0E456FD4F80818093BB0031C094
:101F80001092B501EECF8091B501811122C08091F0
:101F9000BB008093B6018091B6018E31C0F01092E3
:101FA000B60180E091E09093B5019091BC008295DC
:101FB000880F880F807C892B85688093BC00FF91F7
:101FC000EF919F918F911F901FBE1F90189581E0F8
:101FD000E9CFE091B601F0E08091BB00E456FD4FFF
:101FE00080838091B6018F5F8093B601BACF109243
:101FF000BC00B7CF9093BC018093BB010895E091E2
:10200000BB01F091BC01309721F00190F081E02DEF
:10201000099480E00895EF92FF920F931F93CF935E
:10202000DF938C01E091BB01F091BC013097C1F1CD
:102030000280F381E02D09958091520282FF30C029
:1020400080FF04C085E392E00E94AD06D0E0C0E0CE
:102050008FE2E82E82E0F82E8091520280FF0EC0BF
:10206000F801EC0FFD1F80811F928F93FF92EF927A
:102070000E9446070F900F900F900F902196C83046
:10208000D10551F78091520280FF0AC08DE292E0A3
:10209000DF91CF911F910F91FF90EF900C94AD06BF
:1020A000DF91CF911F910F91FF90EF900895E091F4
:1020B000BB01F091BC01309739F022E0DC012C9398
:1020C0000480F581E02D099408952091B9013091A3
:1020D000BA012817390771F09093BA018093B901BA
:1020E000E091BB01F091BC01309721F00680F781AF
:1020F000E02D099408952091B7013091B801281777
:10210000390771F09093B8018093B701E091BB015A
:10211000F091BC01309721F00084F185E02D099405
:10212000089585B7806885BF85B7806885BF0895A5
:10213000089508950C94981008950C949C100E9492
:1021400091100E9499100C949A100C94290C0E94E2
:10215000FF1C0E94800A0E94641D0C949D10CF9366
:10216000C82F8091520282FF1EC080FF1CC08EE4E7
:1021700092E00E94AD068091520280FF14C01F922F
:10218000CF9389E492E09F938F930E9446078091BA
:1021900052020F900F900F900F9080FF04C087E4C1
:1021A00092E00E94AD068C2FCF910C94B007AF92B5
:1021B000BF92CF92DF92EF92FF920F931F93CF9334
:1021C000DF93CDB7DEB72A970FB6F894DEBF0FBE08
:1021D000CDBF0E944E0B0E94A510882309F45FC05A
:1021E0008EEBA82E81E0B82E10E000E0C02E802FEC
:1021F0000E942F0AE82EF501D1905F01D81609F44C
:1022000048C08091520281FD0E94350A80E0FF247F
:10221000F394DE249D2D9F21B9F18E83CF82EF2090
:1022200081E009F480E088870E94081D8160782F92
:102230009A8789874E815F8168858A850E9471119E
:10224000F801E254FE4F8081F826F0820E94731F4D
:102250000E94FF0F9091BD01891791F10E94FF0F1D
:102260008093BD012A960FB6F894DEBF0FBECDBF96
:10227000DF91CF911F910F91FF90EF90DF90CF9062
:10228000BF90AF900C94AF108F5FFF0C843009F0BB
:10229000C1CF0F5F1F4F0431110509F0A7CF8FEF9A
:1022A00089838A831B820E94081D8160782F9D8309
:1022B0008C8349815A816B818D810E947111C6CFB7
:1022C0002A960FB6F894DEBF0FBECDBFDF91CF9137
:1022D0001F910F91FF90EF90DF90CF90BF90AF9044
:1022E0000895CF93DF93CDB7DEB72B970FB6F89451
:1022F000DEBF0FBECDBF4F83588769877A878B8734
:102300001E821D8285E0FE013796DE011196019046
:102310000D928A95E1F749815A816B817C818D818B
:102320009E812B960FB6F894DEBF0FBECDBFDF9116
:10233000CF910C94B917FC01808191810C946E1A95
:10234000CF93C82F882309F490C08238C1F40E942B
:10235000FF0F81FD8AC089E30E949C1A0E940D1B19
:102360002FEF81EE94E0215080409040E1F700C0D3
:10237000000089E30E94A31ACF910C940D1B8338AF
:10238000A1F40E94FF0F80FD70C083E50E949C1A9B
:102390000E940D1B2FEF81EE94E021508040904071
:1023A000E1F700C0000083E5E5CF8438A1F40E9486
:1023B000FF0F82FD5AC087E40E949C1A0E940D1BE9
:1023C0002FEF81EE94E0215080409040E1F700C073
:1023D000000087E4CFCF8CEF8C0F813AB8F48C2FBC
:1023E0000E946424811141C06C2F80911901909149
:1023F0001A010E94431C882329F08C2F0E94A31AE3
:102400000E940D1B8C2F0E949C1AB6CF80E28C0F6D
:10241000883048F4C77081E001C0880FCA95EAF798
:102420000E94C41AA9CFEBE5EC0FE33040F4F0E0D2
:10243000E357FE4F808190E0CF910C946510E8E562
:10244000EC0FE73150F4F0E0EE0FFF1FE15AFE4FC2
:1024500080819181CF910C947B10C03F30F08C2F04
:102460000E94FF1DCF910C94E61ECF910895882302
:1024700009F452C0823871F40E94FF0F81FF4CC0F2
:1024800089E30E949C1A0E940D1B89E30E94A31AF3
:102490000C940D1B833859F40E94FF0F80FF3CC041
:1024A00083E50E949C1A0E940D1B83E5EFCF8438C0
:1024B00059F40E94FF0F82FF2FC087E40E949C1AEC
:1024C0000E940D1B87E4E2CF9CEF980F913AF0F247
:1024D00090E2980F983050F4877091E001C0990F06
:1024E0008A95EAF7892F0E94CA1AD2CF9BE5980FE6
:1024F000933020F490E080E00C94651098E5980FFC
:10250000973120F490E080E00C947B10803F20F025
:102510000E94671E0C94E61E0895CF93C82F0E9458
:10252000A011C93349F42FEF87EE93E0215080408A
:102530009040E1F700C000008C2FCF910C9437122F
:10254000882321F00E94C41A0C940D1B089588233F
:1025500021F00E94CA1A0C940D1B0895BF92CF92CD
:10256000DF92EF92FF920F931F93CF93DF936C0153
:10257000D62FC72FFC01058102950F701281111112
:102580000E94E11A0E94BA1AE82E882371F01123E2
:10259000B1F080E28D0F883090F082E00E94581BED
:1025A0000E94BA1A91E0E82EE926BC2EB2949FE070
:1025B000B922EB2DF0E0E254F24D0C94602DE12CA9
:1025C000F4CF0C2F0F70C07F11F00295007F112304
:1025D000A9F0002359F080E28D0F883010F0D1115E
:1025E00009C0802F0E94C41A0E940D1B8D2F0E94CB
:1025F000A01114C0802F0E94D41AF6CF8D2F0E94F4
:102600003712002359F080E28D0F883010F0D1117D
:102610002CC0802F0E94CA1A0E940D1B2B2D2850FF
:10262000330B2430310520F40E94FF0F0E94B007C5
:10263000EE2009F4D5C10E94B61A80FDD1C1F60181
:1026400012820E94B01A0E943D19C6010E94111503
:102650000E94B01ADF91CF911F910F91FF90EF90E0
:10266000DF90CF90BF900C945E19802F0E94DA1AF1
:10267000D3CFFC2FFF70FF2EC07FC03219F0F29431
:1026800080EFF822DD2369F0D13049F1112391F177
:10269000002351F1F601858180FFA8CF8F708583DB
:1026A00023C0112381F0011106C00E94F41A8F2962
:1026B0000E94A012B3CF0130C1F70E94F41A8F29F3
:1026C0000E94FA1AABCF011106C00E94031B8F2D86
:1026D0000E94A712A3CF013009F4A0CFF6CF112397
:1026E00029F0063008F09ACF8F2DE2CF053008F0A0
:1026F00095CFEDCF002359F3D93349F4FFEF27EEFF
:1027000033E0F15020403040E1F700C000008D2F51
:102710000E94371283CF8C2F86958695837069F03F
:10272000813009F07BCF8D2F9C2F9370111102C047
:1027300090E080E00E947B1071CF8D2F9C2F9370D2
:10274000111102C090E080E00E94651067CF112354
:1027500009F1D53F99F0D63FB9F0D43F49F48091C3
:10276000BA029091BB0281609093BB028093BA023F
:102770008D2F0E94FF1D0E94E61E50CF8091BA024D
:102780009091BB028260F0CF8091BA029091BB021F
:102790008460EACFD53F89F0D63FA9F0D43F49F411
:1027A0008091BA029091BB028E7F9093BB0280937E
:1027B000BA028D2F0E94671EDECF8091BA029091DF
:1027C000BB028D7FF2CF8091BA029091BB028B7FCA
:1027D000ECCF8C2F837009F041C011111FCF4D2F0A
:1027E000429546954770440F440F0D2F0F7010E02F
:1027F00030E020E0042E04C0000F111F221F331F01
:102800000A94D2F760E070E0CB01D4FF0FC06FE014
:1028100070E080E090E004C0660F771F881F991F6A
:102820004A95D2F76095709580959095C695C69516
:10283000C370602B712B822B932BC23049F058F45C
:10284000C13019F00E94EF18E9CE0E94DD18E6CEE3
:102850000E940119E3CE0E94DB18E0CE8695112379
:1028600011F08C2F8170882309F4D8CE4D2F42951A
:1028700046954770440F440F0D2F0F7010E030E065
:1028800020E0042E04C0000F111F221F331F0A94E2
:10289000D2F760E070E0CB01D4FF0FC06FE070E0D2
:1028A00080E090E004C0660F771F881F991F4A954B
:1028B000D2F76095709580959095C695C695C37032
:1028C000602B712B822B932BC23049F058F4C1300E
:1028D00019F00E94B419A2CE0E94A2199FCE0E94A4
:1028E000C6199CCE0E94171999CECF70112329F0DA
:1028F0008C2F0E943D198D2FDBCE8D2F0E94A712A9
:102900008C2F0E945E198ACED23F89F160F4D03FAD
:10291000C9F0D13F29F1112309F442C0011166CE5B
:102920008C2F8F7121C0D33F39F1D43FA1F71123F0
:1029300069F1CF718C2F0E943D1963E08C2F0E94AA
:10294000431B6CCE112341F0053008F067CE8C2F6D
:102950008F710E94811962CE063008F05FCEF7CFEA
:102960008C2F8F71112369F20E943D1957CE8C2F45
:102970008F711123C9F3C5CF112329F08C2F8F71CB
:102980000E9428194BCE0E94231948CE81E00E9454
:10299000581B023008F442CE82E00E94581B3ECE03
:1029A000002359F0D93309F0B2CE8FEF97EEE3E070
:1029B00081509040E040E1F7A8CE8C2F8F71A1CFDD
:1029C0004C2F4F706D2FC6010E941A080E94531899
:1029D00025CE4C2F4F706D2FC6010E941D081ECEB4
:1029E000DF91CF911F910F91FF90EF90DF90CF90EB
:1029F000BF9008950F931F93CF93DF93EC016881ED
:102A000079818A810E94781A8C010E94D8190E94CB
:102A1000DA18B801CE01DF91CF911F910F910C947C
:102A2000AE12CF93DF93EC018B819C81892B29F02F
:102A30008881998189238F3F19F4DF91CF9108957F
:102A4000CE010E94C8078823C1F3CE010E94FA1468
:102A5000CE01DF91CF910C9494070E94E11A0E945D
:102A6000F11A0E940D1B0E948D200E94E61E90E02C
:102A700080E00E94651090E080E00C947B100E9442
:102A8000AA1A0C942D150E94D11A0C943F15E92F07
:102A9000E295EF70E250EE3070F4F0E0E253F24D68
:102AA0000C94602D803F19F020F4883E20F481E0E2
:102AB0000895843FE1F380E00895883EC0F3813FAC
:102AC000D1F7F5CF93FB882780F908950E946E1AFD
:102AD0000C944715CF93DF9300D000D00F92CDB761
:102AE000DEB70F900F900F900F900F90DF91CF9166
:102AF0000895CF93DF9300D000D000D0CDB7DEB7DC
:102B000026960FB6F894DEBF0FBECDBFDF91CF91F2
:102B100008951F93CF93DF93C091D30116E0809166
:102B2000D4018C1304C0DF91CF911F910895D0E0A0
:102B30001C9FF0011D9FF00D1124EB52FE4F4081B0
:102B4000518162817381848195810E9479152196DA
:102B5000C770E5CF409105025091060260910702CF
:102B6000709108028091090290910A020C947915E3
:102B70001F93CF93DF9380910A02807FA9F4809105
:102B80000702882389F08091D301C091D40160911C
:102B9000050270910602A0910802B0910902D62F99
:102BA000D72316E0C81304C0DF91CF911F91089579
:102BB00090E0109711F0DF3F19F401968770F2CF83
:102BC000189F9001199F300D1124F901EB52FE4F0F
:102BD00041814713F2CF40814613EFCF428141112B
:102BE000ECCF438154814A1B5B0B483C510528F7CD
:102BF00080910A028F70806180930A02F901E65287
:102C0000FE4F80818F708061808385E092E00E941A
:102C10001115DF91CF911F910C948915AF92BF923E
:102C2000CF92DF92EF92FF920F931F93CF93DF9398
:102C3000CDB7DEB761970FB6F894DEBF0FBECDBF3C
:102C40008C0185E0F801DE011D9601900D928A95B8
:102C5000E1F7F80140815181E28085E0C82E82E0F1
:102C6000D82E60910802709109026115710509F46E
:102C700061C19091050220910602892F82238F3F26
:102C800009F458C1A380B480F0900702F501E61B57
:102C9000F70BFF2009F4FCC080910A02382F307F27
:102CA000E83CF10508F0B2C0311179C0FE2C2513C3
:102CB00023C0941321C0E1101FC08F7080618093E6
:102CC0000A020E94AA15C6010E94111580910A02EB
:102CD000F80185838F2D61960FB6F894DEBF0FBE85
:102CE000CDBFDF91CF911F910F91FF90EF90DF90BB
:102CF000CF90BF90AF900895AB2829F0842F852303
:102D00008F3F09F033C180E0F82FF170DF2E80FF94
:102D10003CC08091D3012091D40136E0821315C0CC
:102D20004D875E878D859E850E946E1A292F22957C
:102D30002F702230F0F0243018F59F70F1F0F80178
:102D40009581907FD1F4D12C1EC090E0389FF00186
:102D5000399FF00D1124EB52FE4F6181651306C0BF
:102D60006081641303C062816E110FC00196877089
:102D7000D5CF9F7011F0882331F3805E883018F32F
:102D8000C8010E941115FD2CA5CFEE2009F4A2CF99
:102D900080910A02816080930A02F12C9BCF251357
:102DA00006C0941304C0F801EE2009F48DC04D87CD
:102DB0005E878D859E850E946615882319F1EE2019
:102DC00009F180910A02803270F020910502309161
:102DD000060238872F831986BB86AA868C87CE0188
:102DE00007960E94111586E0F801A5E0B2E0019077
:102DF0000D928A95E1F70E94B8150E94AA15FF244A
:102E0000F39468CFC8010E941115F9CF311113C096
:102E10007A2DB98AA88A6E2D89890E946A1585E063
:102E200092E00E94111586E0F60111928A95E9F769
:102E30000E94AA15B2CF25130FC094130DC0E11044
:102E40000BC0F8018583C8010E94111586E0F601C8
:102E500011928A95E9F73ECF4D875E878D859E85D5
:102E60000E946615882371F2EE2061F280910A02B9
:102E7000803208F4B8CF20910502309106023A83DF
:102E800029831B82BD82AC828E83CE010196A9CF9D
:102E9000E83CF10508F041C0FE2CEE2009F4B2CF69
:102EA00025132AC0941328C080910A0280FD1BC0FC
:102EB000982F907FC1F0F8018583903F31F0982FD3
:102EC000907F905F8F70892B8583C8010E941115B8
:102ED00086E0F801A5E0B2E001900D928A95E1F755
:102EE0000E94AA15F7CE86E0F801A5E0B2E00190B5
:102EF0000D928A95E1F7EECE4D875E878D859E8592
:102F00000E94661581116FCF80910A0281608093C3
:102F10000A02C8010E941115DDCE7A2DB98AA88A4D
:102F20006E2D89890E946A1586E0F60111928A95B4
:102F3000E9F7D6CFEE2009F465CF4D875E878D8502
:102F40009E850E946615F82E882309F45BCF86E0E3
:102F5000F801A5E0B2E001900D928A95E1F785E0D5
:102F600092E00E949B110E94B815BACF81E08E2595
:102F7000CBCE1F93CF93DF93CDB7DEB72C970FB691
:102F8000F894DEBF0FBECDBF4F83588769877A871D
:102F90008B879C87CE0107960E940E16882369F0C6
:102FA0008A859B85892B39F04F815885842F85230D
:102FB0008F3F09F071C016E05FC086E0FE013796D2
:102FC000DE01119601900D928A95E1F78A859B8525
:102FD000892B89F388859F8189238F3F61F3209115
:102FE000D40130E0C9010196877099274091D3013F
:102FF0004817190671F40E9443151092D4011092DB
:10300000D30186E0E5E0F2E0DF011D928A95E9F761
:10301000D2CF96E0929FD001939FB00D1124AB5276
:10302000BE4FFE01319601900D929A95E1F7809383
:10303000D4010E948915BFCF819FC00111248B52FA
:103040009E4F0E940E168823E9F0E091D3011E9F47
:10305000F0011124EB52FE4F408151816281738156
:10306000848195810E9479158091D30190E0019629
:10307000877099278093D3018091D3019091D401D7
:103080008913DACF2C960FB6F894DEBF0FBECDBFF2
:10309000DF91CF911F91089569857A858B859C85F5
:1030A0000E94791588CFEF92FF920F931F93CF93D1
:1030B000DF938C01892B81F0F12CEE24E394E8015D
:1030C0002196F8018491843770F4843008F05FC051
:1030D0008130B1F08230A1F1DF91CF911F910F913A
:1030E000FF90EF900895853709F44CC008F43DC077
:1030F0009CE7980F903780F78F770E94371249C06E
:103100000E5F1F4FFE01849190E2980F983060F49B
:103110008770FE2D01C0FF0F8A95EAF78F2F0E945E
:10312000E41A0E940D1B02C00E94A0118F2D815035
:1031300030F2EFE9FFE03197F1F700C00000F7CF80
:103140000E5F1F4FFE01849190E2980F983050F46B
:103150008770FE2D01C0FF0F8A95EAF78F2F0E941E
:10316000EA1ADFCF0E943712E1CF0E5F1F4FFE0138
:10317000C491C150D8F28FE99FE00197F1F700C0E8
:103180000000F7CF0E5F1F4FFE01F490CFCF0E94DB
:10319000A0118E01CBCF08950C94CB180E94CC18AF
:1031A00060934102709342028093430290934402E1
:1031B0000C942D1508950C94CE180F931F93009125
:1031C0004102109142022091430230914402602B4F
:1031D000712B822B932B1F910F910C94CE180F9370
:1031E0001F930091410210914202209143023091BD
:1031F000440260237123822393231F910F910C9427
:10320000CE180F931F93009141021091420220911A
:1032100043023091440260277127822793271F9130
:103220000F910C94CE180C94CB180C9413190E9487
:10323000151960933D0270933E0280933F02909374
:1032400040020C942D1560E070E0CB010C9417192E
:103250000F931F9341E050E060E070E08A019B0112
:1032600004C0000F111F221F331F8A95D2F7C90116
:10327000B8011F910F910C9417190F931F9341E000
:1032800050E060E070E004C0440F551F661F771FD8
:103290008A95D2F780913D0290913E02A0913F0223
:1032A000B09140028A019B01082B192B2A2B3B2B42
:1032B000C901B8011F910F910C9417190F931F9317
:1032C00041E050E060E070E004C0440F551F661F0D
:1032D000771F8A95D2F7CB01BA01609570958095DA
:1032E000909500913D0210913E0220913F02309155
:1032F000400260237123822393231F910F910C942A
:1033000017190F931F9341E050E060E070E004C094
:10331000440F551F661F771F8A95D2F780913D0293
:1033200090913E02A0913F02B09140028A019B0120
:10333000082719272A273B27C901B8011F910F9198
:103340000C9417190F931F9300913D0210913E02A8
:1033500020913F0230914002602B712B822B932BE6
:103360001F910F910C9417190F931F9300913D0219
:1033700010913E0220913F02309140026023712360
:10338000822393231F910F910C9417190F931F936E
:1033900000913D0210913E0220913F023091400287
:1033A00060277127822793271F910F910C9417197B
:1033B0000895990F990F890F982F977041E001C0D8
:1033C000440F9A95EAF786958695869595E0899FAC
:1033D000F0011124E55FFD4F30E020E070E05191F5
:1033E000DF011197CB01022E02C0969587950A94B2
:1033F000E2F7817081958527842385278C932F5F41
:103400003F4F2530310559F70895990F990F890FCE
:10341000982F977086958695869525E0829FF00176
:103420001124E55FFD4F50E040E080E0219130E065
:10343000092E02C0369527950A94E2F721703327AA
:10344000042E01C0220F0A94EAF7822B4F5F5F4FD0
:103450004530510559F70895BF92CF92DF92EF9210
:10346000FF920F931F93CF93DF938C01C0903D0287
:10347000D0903E02E0903F02F090400280914102E5
:1034800090914202A0914302B0914402C82AD92AE5
:10349000EA2AFB2ACFE1D0E0BC2ED701C6010C2ED0
:1034A00004C0B695A795979587950A94D2F780FDA5
:1034B0000EC0219788F7B12C8B2DDF91CF911F91F2
:1034C0000F91FF90EF90DF90CF90BF900895B801DB
:1034D0008C2F0E943A08019761F3EECFCF93DF93D0
:1034E000EC010E942C1ABE01DF91CF910C943A0896
:1034F0001F93CF93DF93EB019091D201992331F089
:10350000CB01DF91CF911F910C946E1A882379F033
:10351000CB010E942C1A182F682FCE010E94D919B6
:10352000BE01812FDF91CF911F910C943A08CB01FE
:103530000E94051A182FF4CF682F809119019091DD
:103540001A010C94791C682F8091190190911A012D
:103550000C947B1C8091190190911A010C947D1C94
:1035600080914502859585958595089580914502C0
:103570008770089590914502977081E009F480E08A
:10358000089580915102089590915102892B809362
:103590005102089580959091510298239093510281
:1035A000089510925102089590915002892B8093B2
:1035B0005002089580959091500298239093500264
:1035C000089510925002089590914F02892B809394
:1035D0004F020895809590914F02982390934F0247
:1035E000089510924F02089580914602089508951B
:1035F0000C94F71A90914602981721F08093460296
:103600000C94F81A089580914602882329F01092AC
:10361000460280E00C94F81A0895E0911901F091A7
:103620001A01809151028083E0911901F0911A01F1
:10363000808190915002892B8083E0911901F09153
:103640001A01808190914F02892B808390914602CC
:10365000992381F0E0911901F0911A018081892B61
:1036600080838091190190911A010E94311C81116F
:103670000E94031B8091190190911A010C940B1068
:1036800008950C94401B98E0899F90011124622BAF
:10369000609345020E943D1980914502859585956C
:1036A00085950C94411B1092450280E00C94411BBF
:1036B000909145028095892380934502282F277099
:1036C00071F4282F082E000C330B9217130639F0D3
:1036D0008595859585950E945E190C94531B0895D8
:1036E0009093AB018093AA010895829590E09C018C
:1036F000220F331F220F331F2C7C959587959595AC
:1037000087958373282B30E0C901880F991F8A7A27
:10371000359527952575822B089590E080E00E94CD
:10372000822D21E08C3E9E4F09F020E0822F0895EB
:1037300082E090E00C947A2D83E090E00C947A2D56
:10374000CF9384E090E00E947A2DC82F81E290E030
:103750000E947A2D982F8C2FCF910895CF93C92F47
:10376000682F84E090E00E94882D6C2F81E290E029
:10377000CF910C94882DAB01BC018FE090E00C94AC
:103780009A2DAB01BC0183E190E00C949A2D60E08E
:1037900070E0CB010C94C11B60E070E0CB010E9493
:1037A000BB1B0C94C71B6CEE7EEF90E080E00E9488
:1037B000A62D60E082E090E00E94882D60E083E02A
:1037C00090E00E94882D10924102109242021092C5
:1037D00043021092440260E084E090E00E94882D51
:1037E00060E081E290E00E94882D60E085E090E05A
:1037F0000E94882D60E086E090E00E94882D6FEFA7
:1038000087E090E00E94882D40E050E0BA0188E017
:1038100090E00E949A2D60E08DE090E00E94882D5B
:1038200040E050E0BA0188E190E00E949A2D60E00B
:1038300087E190E00E94882D40E050E0BA018CE1E1
:1038400090E00E949A2D60E080E290E00E94882D36
:103850000C94CC1B0C94D31B682F8EE090E00C943E
:10386000882D9C012E5F3F4FAC01485F5F4F80E089
:103870002417350709F40895F90191919F019923BF
:10388000B9F38F5FF5CF662349F0FC0132960896B5
:103890002191261729F0E817F907D1F780E008955C
:1038A00081E008959C01FC0132969FEF80E04191F8
:1038B000461751F09F3F19F4411101C0982F8F5FB7
:1038C0008630A9F79F3F09F40895290F311D97FD10
:1038D0003A95F90162830895FC0132960896219188
:1038E000261303C0DF0111971C92E817F907B9F7F7
:1038F00008950C94521C0C946C1C029626E0FC015A
:1039000011922A95E9F70895089508950C94851C5D
:103910000E94861C8091C602843049F110925302A5
:1039200088E190E020E40FB6F894A89580936000B9
:103930000FBE2093600080E00E94B0070E94861CAA
:1039400083B7817F846083BF83B7816083BF7894AE
:10395000889583B78E7F83BF0FB6F894A895809122
:103960006000886180936000109260000FBE08952F
:103970000895CF930E94841C0E944E0B0E94B81C95
:10398000C0E08C2F0E942F0A811105C0CF5FC43187
:10399000C1F7CF91089581E0FCCF08950C94CD1C20
:1039A0000E9443150E94FF0F0E94B0070C94CE1C8A
:1039B0001F921FB61F9211248F939F93AF93BF93B3
:1039C00080915302811113C08091BC029091BD027D
:1039D000A091BE02B091BF024196A11DB11D80937E
:1039E000BC029093BD02A093BE02B093BF02BF91F0
:1039F000AF919F918F911F901FBE1F90189582E0ED
:103A000084BD93E095BD9AEF97BD80936E000895B5
:103A10002FB7F8948091BC029091BD02A091BE0294
:103A2000B091BF022FBF08952FB7F8946091BC02E8
:103A30007091BD028091BE029091BF022FBF089588
:103A40009C014FB7F8948091BC029091BD02A09167
:103A5000BE02B091BF024FBF821B930B08957894B2
:103A60001F921FB61F9211248F939F93AF93BF9302
:103A70008091BC029091BD02A091BE02B091BF02A4
:103A80000196A11DB11D8093BC029093BD02A0932D
:103A9000BE02B093BF02BF91AF919F918F911F90D3
:103AA0001FBE1F90189587E797E7909301088093B2
:103AB000000888E19AE00FB6F894A895809360001A
:103AC0000FBE90936000FFCF0E948D1B811102C03A
:103AD0000E942A1C0E94981B809352020E94A01BE5
:103AE0009093C1028093C0020E949C1B682F70E0DB
:103AF00090E080E00C94DB1880915B0280FF12C0A4
:103B00006091200185E0689FB0011124759567954B
:103B10007595679560387105A8F561157105A1F176
:103B2000862F089581FF09C06091200185E0689F7C
:103B3000B001112475956795EDCF6091200182FD4C
:103B40000AC080915A028823D1F090911F016091A0
:103B50002001891728F085E0689FB0011124DACF91
:103B6000869FB001112485E0869F9001879F300DCC
:103B70001124692F70E0C9010E944C2DCBCF65E064
:103B800070E0CECF8FE7089581E0089580915B02C9
:103B900080FF0CC060911C0170E07595679575956C
:103BA00067956115710549F1862F089581FF06C05B
:103BB00060911C0170E075956795F3CF60911C01D1
:103BC00082FD0BC090915A029923A1F060911B01D4
:103BD00080911C01961738F0682F70E060387105ED
:103BE00000F38FE70895899FC001112470E00E94BF
:103BF0004C2DF4CF61E070E0D7CF81E00895803F95
:103C000031F40E947C1D819580935F020895813F6D
:103C100019F40E947C1DF8CF823F31F40E947C1D74
:103C2000819580935E020895833F19F40E947C1D64
:103C3000F8CF893F29F40E94C61D80936002089541
:103C40008A3F21F40E94C61D8195F7CF8B3F31F446
:103C50000E94C61D81958093610208958C3F19F4DE
:103C60000E94C61DF8CF843F31F480915D028160CF
:103C700080935D020895853F21F480915D0282600A
:103C8000F7CF863F21F480915D028460F1CF873FBA
:103C900021F480915D028860EBCF883F21F4809110
:103CA0005D028061E5CF8D3F31F480915B028160E0
:103CB00080935B0208958E3F21F480915B028260C5
:103CC000F7CF8F3FB9F780915B028460F1CF90917D
:103CD0005E02803F41F480915F0287FD10925F0297
:103CE000992371F00895813F29F480915F0218169D
:103CF000ACF3F6CF823F81F497FFF2CF10925E02D1
:103D000080915F0290916002892B90916102892BD2
:103D100049F710925A020895833F19F4191674F363
:103D2000DFCF893F39F4809160021816CCF61092EB
:103D30006002D6CF8A3F29F48091600287FFD0CFFE
:103D4000F6CF8B3F39F48091610287FFC9CF109283
:103D50006102C6CF8C3F29F4809161021816BCF332
:103D6000BFCF843F31F480915D028E7F80935D02EE
:103D7000B7CF853F21F480915D028D7FF7CF863FDD
:103D800021F480915D028B7FF1CF873F21F48091F8
:103D90005D02877FEBCF883F21F480915D028F7EAB
:103DA000E5CF8D3F31F480915B028E7F80935B0283
:103DB00097CF8E3F21F480915B028D7FF7CF8F3FAD
:103DC00009F08ECF80915B028B7FF0CF8091520201
:103DD00083FF7EC088E892E00E94AD0680915D027C
:103DE0001F928F9383E892E09F938F930E944607E0
:103DF00081E892E00E94AD0680915E02282F082E95
:103E0000000C330B3F938F938EE792E09F938F9339
:103E10000E9446078CE792E00E94AD0680915F0207
:103E2000282F082E000C330B3F938F9389E792E0E5
:103E30009F938F930E94460787E792E00E94AD060A
:103E400080916002282F082E000C330B3F938F9334
:103E500084E792E09F938F930E94460782E792E067
:103E60000E94AD0680916102282F082E000C330BB2
:103E70003F938F938FE692E09F938F930E94460724
:103E80008CE692E00E94AD0680915A021F928F93B9
:103E900089E692E09F938F930E94460787E692E01F
:103EA0000E94AD0680915B021F928F9384E692E0A0
:103EB0009F938F930E94460781E692E00E94AD0691
:103EC0008DB79EB74C960FB6F8949EBF0FBE8DBFB0
:103ED0008CE592E00E9457100E94081D90935902B1
:103EE000809358020895CF93DF9300D000D000D084
:103EF000CDB7DEB786E0ECE5F2E0DE011196019089
:103F00000D928A95E1F780915E0290915F02892B74
:103F100081F080915602909157020E94201DAC01C1
:103F200090915A02992331F180912101841715064D
:103F300070F18091600290916102892B91F08091E3
:103F40005402909155020E94201DAC0190915A029A
:103F5000992309F478C080911D018417150608F48F
:103F600080C026960FB6F894DEBF0FBECDBFDF919E
:103F7000CF910895209122018AE0289F9001112479
:103F800024173507B0F69F5F90935A0202C09F3FF7
:103F9000D1F7109260021092610280915E021816B1
:103FA00024F40E947C1D80935E0280915E0287FF54
:103FB00005C00E947C1D819580935E0280915F0206
:103FC000181624F40E947C1D80935F0280915F028A
:103FD00087FF05C00E947C1D819580935F02309110
:103FE0005E023323A1F020915F02222381F045EB92
:103FF0003403C00111249923F1F090935E0245EB44
:104000002403900111243323D1F030935F020E94E6
:10401000E61E809158029091590290935702809326
:10402000560286E0FE013196ACE5B2E001900D92B9
:104030008A95E1F77ECF81E080935E02E0CF81E058
:1040400080935F02E4CF20911E018AE0289F9001B7
:1040500011242417350708F084CF9F5F90935A02EC
:1040600002C09F3FD1F710925E0210925F028091D2
:104070006002181624F40E94C61D8093600280918D
:10408000600287FF05C00E94C61D81958093600273
:1040900080916102181624F40E94C61D809361026B
:1040A0008091610287FF05C00E94C61D81958093A3
:1040B0006102309160023323A1F02091610222233A
:1040C00081F045EB3403C00111249923F1F0909362
:1040D000600245EB2403900111243323D1F0309387
:1040E00061020E94E61E80915802909159029093BD
:1040F00055028093540286E0FE013196ACE5B2E0B1
:1041000001900D928A95E1F72CCF81E080936002B7
:10411000E0CF81E080936102E4CF86E0ECE5F2E05D
:10412000DF011D928A95E9F710925A0210925B0204
:1041300008958BEA94E00E94AD061F9281E08F9370
:104140001F9285E08F938DE594E09F938F930E945B
:1041500046070F900F900F900F900F900F900895BB
:10416000833009F445C028F4813061F0823049F190
:104170000895853009F46AC008F451C0863009F406
:104180007CC0089580912201482F460F5527551F66
:104190004F3F510594F4680F6093220180912201F2
:1041A0001F928F9386E993E09F938F930E94460717
:1041B0000F900F900F900F9008958FEF8093220132
:1041C000EDCF80912101482F460F5527551F4F3FB6
:1041D000510554F4680F60932101809121011F92D1
:1041E0008F9384E893E0E0CF8FEF80932101F5CFA8
:1041F00080912001482F460F5527551F4F3F5105ED
:1042000054F4680F60932001809120011F928F93D6
:1042100081E793E0C9CF8FEF80932001F5CF8091A4
:104220001F01482F460F5527551F4F3F510554F486
:10423000680F60931F0180911F011F928F938CE57F
:1042400093E0B2CF8FEF80931F01F5CF80911C01D7
:10425000482F460F5527551F4F3F510554F4680FFF
:1042600060931C0180911C011F928F9383E493E063
:104270009BCF8FEF80931C01F5CF80911B01482FBE
:10428000460F5527551F4F3F510554F4680F609353
:104290001B0180911B011F928F9388E293E084CFD2
:1042A0008FEF80931B01F5CF8330C9F128F4813063
:1042B00061F0823019F10895853009F452C008F494
:1042C0003FC0863009F45EC00895809122016817CE
:1042D00090F4861B80932201809122011F928F937C
:1042E00089E193E09F938F930E9446070F900F9070
:1042F0000F900F90089510922201EECF809121012E
:10430000681750F4861B80932101809121011F9230
:104310008F9387E093E0E6CF10922101F6CF809152
:104320002001681750F4861B8093200180912001A2
:104330001F928F9384EF92E0D5CF10922001F6CF99
:1043400080911F01681750F4861B80931F01809194
:104350001F011F928F938FED92E0C4CF10921F0127
:10436000F6CF80911C01681750F4861B80931C01C6
:1043700080911C011F928F9386EC92E0B3CF109234
:104380001C01F6CF80911B01681750F4861B8093A7
:104390001B0180911B011F928F938BEA92E0A2CFA9
:1043A00010921B01F6CFCF93C82F1F928F9380EBF3
:1043B00095E09F938F930E94460761E070E080E054
:1043C00090E004C0660F771F881F991FCA95D2F727
:1043D0000E94DB180F900F900F900F90CF910C94CC
:1043E0004315CF93DF938B3109F4FEC108F0A0C1D0
:1043F0008B3009F4BCC108F06AC1863009F4CAC127
:1044000048F4853009F4A2C18BE59AE00E94AD061C
:1044100080E0D0C1873009F4D0C18830A9F78AEF95
:104420009AE00E94AD068BE49AE00E94AD060E94DD
:104430009C1B1F928F9388E49AE09F938F930E9416
:10444000460786E49AE00E94AD060E94981BC82F9A
:1044500083E39AE00E94AD061F92CF938EE29AE02A
:104460009F938F930E9446078CE29AE00E94AD06CC
:1044700082E29AE00E94AD068C2F81701F928F938A
:104480008FE19AE09F938F930E9446078DE19AE017
:104490000E94AD0683E19AE00E94AD06C1FB882729
:1044A00080F91F928F9380E19AE09F938F930E94EF
:1044B00046078EE09AE00E94AD0682E09AE00E94F4
:1044C000AD06C2FB882780F91F928F938FEF99E08A
:1044D0009F938F930E9446078DEF99E00E94AD064F
:1044E00084EF99E00E94AD06C3FBCC27C0F91F9270
:1044F000CF9381EF99E09F938F930E9446078FEEB1
:1045000099E00E94AD060E94A01BEC018BED99E0A2
:104510000E94AD06DF93CF9386ED99E09F938F9332
:104520000E94460784ED99E00E94AD068BEB99E06E
:104530000E94AD068C2F81701F928F9388EB99E0BB
:104540009F938F930E9446078DB79EB780960FB6B4
:10455000F8949EBF0FBE8DBF86EB99E00E94AD061A
:104560008FE999E00E94AD06C1FB882780F91F9270
:104570008F938CE999E09F938F930E9446078AE975
:1045800099E00E94AD0688E899E00E94AD068D2F63
:1045900081701F928F9385E899E09F938F930E947B
:1045A000460783E899E00E94AD0681E799E00E9402
:1045B000AD06D695D1701F92DF938EE699E09F935A
:1045C0008F930E9446078CE699E00E94AD068AE52B
:1045D00099E00E94AD06C2FB882780F91F928F9355
:1045E00087E599E09F938F930E94460785E599E0C0
:1045F0000E94AD0683E499E00E94AD06C3FB8827C4
:1046000080F91F928F9380E499E09F938F930E948B
:1046100046078EE399E00E94AD0684E399E00E948C
:10462000AD06C4FB882780F91F928F9381E399E040
:104630009F938F930E9446078FE299E00E94AD06F8
:104640008DE199E00E94AD06C5FB882780F91F9295
:104650008F938AE199E09F938F930E94460788E1A8
:1046600099E00E94AD068CEF98E00E94AD06C6FB73
:10467000882780F91F928F9389EF98E09F938F93FB
:104680000E9446078DB79EB780960FB6F8949EBFDE
:104690000FBE8DBF87EF98E00E94AD068FEE98E0C9
:1046A0000E94AD06C7FBCC27C0F91F92CF938CEEBA
:1046B00098E09F938F930E9446078AEE98E00E94AD
:1046C000AD060F900F900F900F9081E073C0803176
:1046D00009F4A2C080F48E3009F096CE9091520277
:1046E000892F8B7F92FF84608093520282FF91C05A
:1046F00086E89AE085C0863109F49EC0893109F0C8
:1047000083CE81E197E00E94AD068BEE96E00E9499
:10471000AD0682EB96E00E94AD068FE796E00E9420
:10472000AD0689E496E00E94AD068EE196E021C0D8
:104730008A3249F190F4873211F128F48E3108F46D
:1047400063CE8D511DC0893209F05ECE89EC9AE0AE
:104750000E94AD060E94B907B8CF833468F48A334B
:1047600008F0A1C0853359F0883309F04DCE87E4B5
:1047700097E00E94AD06A9CF833409F045CE80E0D2
:104780000E94D321A2CF89EE9AE00E94AD060E943A
:104790002A1C9BCF80915202807F8093520280E23C
:1047A00097E00E94AD0685EE9AE00E94AD0681E09A
:1047B00080936302DF91CF91089590915202892FE7
:1047C0008E7F90FF81608093520280FF03C08DEB4B
:1047D0009AE0CFCF80EB9AE00E94AD068091520222
:1047E000817F8093520271CF90915202892F8D7FE9
:1047F00091FF82608093520281FF08C083EA9AE0B1
:104800000E94AD06809152028160EBCF85E99AE06B
:10481000B0CF86E79AE0ADCF90915202892F877F83
:1048200093FF88608093520283FF03C08AE69AE078
:10483000E7CF8DE59AE09DCF80E196E00E94AD063E
:104840000E94FF0F1F928F9386EF95E09F938F93A7
:104850000E94460780912D011F928F938FED95E066
:104860009F938F930E944607809170021F928F93AF
:104870008CEC95E09F938F930E9446070E94141D35
:104880009F938F937F936F9385EB95E09F938F9387
:104890000E9446078DB79EB742960FB6F8949EBF0A
:1048A0000FBE8DBF12CF89536BCF80E008950C945B
:1048B00055248E518A3030F4E82FF0E0E057FE4F57
:1048C0008081089580E00895CF93C82F809163027E
:1048D0008130C1F0882339F0823009F447C010924A
:1048E000630280E00DC00E94C11A8232D1F78C2F82
:1048F0000E94552481111BC08C2F0E94F1218170D0
:10490000CF9108950E94C11A823289F38C2F0E94A0
:10491000572481111BC0C431D9F060F4CB3071F041
:10492000C031D1F086EA95E00E94AD0613C081E067
:1049300090E0E5CFC93261F0C833A1F780E297E09B
:104940000E94AD068CEA95E00E94AD0681E0D7CFCB
:104950001092630280E0D3CF0E94992088EA95E00C
:104960000E94AD0682E080936302F0CFC432C8F4A7
:10497000CE3108F0BEC0CB30E1F040F4C73009F4CE
:10498000CCC08AE494E00E94AD0626C0C331C1F1D8
:10499000C431B9F780916202882351F1109262020A
:1049A0000AC0CB3409F4B7C0C8F4C93299F3C8338C
:1049B00041F70E94992080916202882309F4C4C0C3
:1049C0001F928F9384E494E09F938F930E944607F5
:1049D0000F900F900F900F9081E092CFC13509F4A6
:1049E00094C0C23509F48BC0CE3459F66AE08EC04B
:1049F00089E594E00E94AD0681E08093630280CF58
:104A000083E394E00E94AD0681E294E00E94AD064B
:104A1000809122011F928F938EE194E09F938F9358
:104A20000E9446078CE194E00E94AD068AE094E083
:104A30000E94AD06809121011F928F9387E094E040
:104A40009F938F930E94460785E094E00E94AD06F5
:104A500086EF93E00E94AD06809120011F928F9314
:104A600083EF93E09F938F930E94460781EF93E03B
:104A70000E94AD0680EE93E00E94AD0680911F017A
:104A80001F928F938DED93E09F938F930E94460723
:104A90008BED93E00E94AD0686EC93E00E94AD069C
:104AA00080911C011F928F9383EC93E09F938F93CF
:104AB0000E94460781EC93E00E94AD068AEA93E0EB
:104AC0000E94AD0680911B011F928F9387EA93E0AD
:104AD0009F938F930E94460785EA93E00E94AD065C
:104AE0008DB79EB748960FB6F8949EBF0FBE8DBF88
:104AF00062CF8C2F0E945924809362025CCF61E0C8
:104B0000809162020E94B02056CF61E080916202E3
:104B10000E94542150CF6AE0F3CF8EE180932201AE
:104B200082E3809321018AE08093200184E18093D5
:104B30001F0188E080931C0188E280931B018CE4B4
:104B400094E00E94AD0637CF81E494E01CCF8091C1
:104B50006F0208959FB7F894109266029FBF9091DC
:104B6000C602943009F048C02091E9002F703091BE
:104B7000EC00932F917030FD90E8922B23E020936E
:104B8000E9002091EB0020FF34C02091EE0027FFC8
:104B900030C020916402222321F02091E80025FFFB
:104BA00028C01092640226E03091E80035FF14C05E
:104BB0008093F1008091E80085FD27C08091E80096
:104BC00080FFFCCF8091E8008E778093E8009F7093
:104BD0009093E90080E008953091C602343049F4A2
:104BE0003091EB0035FD05C0215041F481E0809308
:104BF00064029F709093E9008FEF0895EFE9FFE062
:104C00003197F1F700C00000CFCF8FB7F89421E0C3
:104C1000209366028FBFDBCFCF93DF9300D00F923C
:104C2000CDB7DEB79091C602943019F589837B83A6
:104C30006A8382E08093E9008FEF9091E8008150D1
:104C400095FD06C095ED9A95F1F700008111F5CF1D
:104C50008091E80085FF0DC050E040E063E070E027
:104C6000CE0101960E94B0288091E8008E77809353
:104C7000E8000F900F900F90DF91CF910895CF93A0
:104C8000DF93EC010E949328823011F0843031F4DC
:104C9000BE0184E0DF91CF910C940C26DF91CF917F
:104CA0000895BC0183E00C940C26CF93DF93EC01B4
:104CB0000E949328823011F08430F9F482E08093CE
:104CC000E9008FEF9091E800815095FD06C095EDC9
:104CD0009A95F1F700008111F5CF8091E80085FFEA
:104CE0000CC050E040E066E070E0CE010E94B028C9
:104CF0008091E8008E778093E800DF91CF9108954E
:104D0000CF93DF93EC010E949328823011F084301E
:104D100039F581E08093E9008FEF9091E8008150B0
:104D200095FD06C095ED9A95F1F700008111F5CF3C
:104D30008091E80085FF14C050E040E068E070E03A
:104D4000CE010E94B0288091E8008E778093E80021
:104D500088E0FE01A7E6B2E001900D928A95E1F7A6
:104D6000DF91CF9108958AE29BE00E94AD06809189
:104D7000C502811109C00E94402A0E949D2A80918B
:104D8000E20084608093E200089586E29BE00E9446
:104D9000AD061092C502089582E29BE00C94AD0628
:104DA0008EE19BE00C94AD068AE19BE00E94AD068B
:104DB0000C94D01C209165022F5F822F62E30E9429
:104DC000402D992319F020936502089510926502F1
:104DD000809166028823F1F08091C6028430C1F48C
:104DE0009091E9009F702091EC00822F817020FD4E
:104DF00080E8892B93E09093E9009091EB0090FF7D
:104E000004C09091EE0097FD08C08F708093E90078
:104E10001092660208951092F1009091E80095FDBD
:104E2000FACF9091E80090FFF0CF9091E8009E7744
:104E30009093E800EACF42E061EC81E00E94BC2957
:104E400042E261EC82E00E94BC2942E261EC83E034
:104E50000C94BC298091C802833009F45FC030F4FF
:104E60008130C1F1823009F49BC008958A3009F481
:104E700087C08B3009F46DC0893009F04EC0809135
:104E8000C702813209F049C08091CB029091CC02D7
:104E9000029708F042C08091E800877F8093E80085
:104EA0008091E80082FF35C09091F3008091F2007C
:104EB000029729F48091F1008B7F813021F4809159
:104EC000F10080936F028091E8008B778093E80077
:104ED0000C94F0298091C702813AF9F48091E8009E
:104EE000877F8093E8008091CB029091CC02892B40
:104EF00061F468E087E692E070E00E94FF2880910C
:104F0000E8008B778093E800089560E090E080E00F
:104F1000F3CF8091C6028111C3CF08958091C7025B
:104F2000813AD9F78091CB029091CC02892BA9F7D5
:104F30008091E800877F8093E8008091E80080FFFF
:104F4000FCCF80912D018093F1008091E8008E7755
:104F5000BDCF8091C702813201F78091CB02909141
:104F6000CC02892BD1F68091E800877F8093E800FE
:104F70000E94F0298091C90280932D010C94431561
:104F80008091C702813249F68091E800877F809343
:104F9000E8000E94F0298091CA028093700208956F
:104FA0008091C702813A09F0B8CF8091E800877FED
:104FB0008093E8008091E80080FFFCCF8091700230
:104FC000C2CF84B7877F84BF0FB6F894A89580912D
:104FD0006000886180936000109260000FBE80E8DE
:104FE00090E00FB6F89480936100909361000FBE3B
:104FF0000E949F100E94402A0E949D2A8091E200F8
:1050000084608093E2008AEA95E20E94701B7894A3
:105010000E94252D0E94A71083E291E00E94FA0FC2
:1050200089E09BE00E94AD068091C602853019F0B0
:105030000E94D710F9CF85E09BE00E94AD060E9448
:10504000881C8091C402882379F30E94B91C8823AC
:1050500059F30E949A28E8CF0C942E28292F332741
:105060002330310521F168F42130310509F449C0BC
:105070002230310509F44AC090E080E030E020E0C1
:1050800029C02132310581F122323105A9F763307F
:10509000710590F7FB01EE0FFF1FE356FE4F2081D5
:1050A000318166567E4FFB01808190E013C09927C5
:1050B0008130910599F0009741F08230910589F097
:1050C0000397D1F6EEE2FBE002C0ECE5FBE0849151
:1050D00090E09F01FA01318320830895EAE4FBE028
:1050E000F6CFE4E3FBE0F3CF6330710528F6660FFB
:1050F000771FFB01ED55FE4F2081318189E090E063
:10510000E9CF82E190E02BEB3BE0E4CF8BE590E050
:1051100020E63BE0DFCF8091C602843011F482E0CC
:10512000089581E0089580917102811102C00C946C
:105130008B28089580E189BD82E189BD09B400FE14
:10514000FDCF8091D8008F7D8093D8008091E000C2
:1051500082608093E0008091E00081FDFCCF0895A3
:10516000AF92BF92CF92DF92FF920F931F93CF9394
:10517000DF936C01EB018A010E940F2AF82E811146
:1051800023C00115110539F0F80180819181C81BF8
:10519000D90BC80ED91EB12CA12C2097A9F0809153
:1051A000E80085FD22C08091E8008E778093E800BA
:1051B00001151105A1F0F80180819181A80EB91E99
:1051C000B182A08285E0F82E8F2DDF91CF911F91C3
:1051D0000F91FF90DF90CF90BF90AF9008950E9405
:1051E0000F2A8823D1F2F82EEFCFF60181916F01BB
:1051F0008093F1002197FFEFAF1ABF0ACECFFC01D9
:105200008091CD029091CE0286179707A0F061158C
:10521000710529F49091E8009E779093E80090E062
:105220006115710551F4911108C08091E80082FF69
:1052300034C080E00895BC01F2CF8091C60288237B
:10524000C1F18530C1F18091E80083FD30C08091CB
:10525000E80082FDEACF8091E80080FFE1CF8091F5
:10526000F3002091F200382F6115710519F02830F4
:10527000310558F091E02830310509F090E0209197
:10528000E8002E772093E800CBCF81918093F10046
:10529000615071092F5F3F4FE7CF8091C60288238D
:1052A00041F0853041F08091E80083FFBECF81E07E
:1052B000089582E0089583E00895FC018091CD0275
:1052C0009091CE0286179707A0F06115710529F419
:1052D0008091E8008E778093E80090E06115710579
:1052E00051F4911108C08091E80082FF35C080E040
:1052F0000895BC01F2CF8091C6028823C9F18530A0
:10530000C9F18091E80083FD31C08091E80082FD01
:10531000EACF8091E80080FFE1CF8091F3002091F7
:10532000F200382F6115710519F02830310558F059
:1053300091E02830310509F090E08091E8008E7707
:105340008093E800CBCF84918093F1003196615037
:1053500071092F5F3F4FE6CF8091C602882341F04D
:10536000853041F08091E80083FFBDCF81E0089552
:1053700082E0089583E00895982F973028F08F7089
:105380008093E90081E008959093E900242F762F1F
:1053900050E0981731F07091EC002091ED005091A1
:1053A000F00021FD02C09F5FE8CF3091EB003E7F0F
:1053B0003093EB003091ED003D7F3093ED00309164
:1053C000EB0031603093EB007093EC002093ED0024
:1053D0005093F0002091EE0027FDE5CF80E0089586
:1053E0008091C70287FF13C08091E80082FF06C04A
:1053F0008091E8008B778093E80004C08091C6021A
:105400008111F2CF08958091C6028823D9F380914B
:10541000E80080FFF8CF8091E8008E77ECCF2091F4
:10542000E4003091E50095E6A9012091EC00822F7F
:10543000817020FF06C08091E80080FF06C080E0F8
:1054400008952091E80022FD1AC08091C6028823A9
:1054500089F0853089F08091EB0085FD0FC02091A7
:10546000E4003091E50042175307F9F29150E1F65C
:1054700084E0089582E0089583E0089581E008952E
:105480000E94AE2A0E94B62AE0EEF0E080818160A0
:105490008083E8EDF0E080818F77808319BCA7EDF1
:1054A000B0E08C918E7F8C9380818F7E8083109270
:1054B000C50208950F931F93CF93DF930E94AE2AE6
:1054C0000E94B62AC8EDD0E088818F7788838881D2
:1054D0008068888388818F7D888319BC1092C6027A
:1054E0001092C2021092C4021092C30200EE10E0A9
:1054F000F80180818B7F808388818160888342E08E
:1055000060E080E00E94BC29E1EEF0E080818E7FC7
:105510008083E2EEF0E0808181608083808188601A
:105520008083F80180818E7F808388818061888379
:10553000DF91CF911F910F910895E8EDF0E0808108
:105540008F7E8083E7EDF0E080818160808384E05E
:1055500082BF81E08093C5020C945A2AE8EDF0E006
:1055600080818E7F80831092E20008951092DA008D
:105570001092E10008951F920F920FB60F9211241E
:105580002F933F934F935F936F937F938F939F934B
:10559000AF93BF93EF93FF938091E10082FF0BC025
:1055A0008091E20082FF07C08091E1008B7F8093B1
:1055B000E1000E94DA268091DA0080FF19C0809114
:1055C000D80080FF15C08091DA008E7F8093DA00CA
:1055D0008091D90080FF96C080E189BD82E189BDBC
:1055E00009B400FEFDCF81E08093C6020E94B3267D
:1055F0008091E10080FF19C08091E20080FF15C01A
:105600008091E2008E7F8093E2008091E2008061D1
:105610008093E2008091D80080628093D80019BC0A
:1056200085E08093C6020E94D0268091E10084FF2D
:105630002BC08091E20084FF27C080E189BD82E118
:1056400089BD89B5982F917080FFFBCF8091D800DC
:105650008F7D8093D8008091E1008F7E8093E10060
:105660008091E2008F7E8093E2008091E200816071
:105670008093E2008091C202882309F449C084E04B
:105680008093C6020E94D4268091E10083FF29C046
:105690008091E20083FF25C08091E100877F8093A5
:1056A000E10082E08093C6021092C2028091E10084
:1056B0008E7F8093E1008091E2008E7F8093E200F4
:1056C0008091E20080618093E20042E060E080E04F
:1056D0000E94BC298091F00088608093F0000E94B5
:1056E000CC26FF91EF91BF91AF919F918F917F91C8
:1056F0006F915F914F913F912F910F900FBE0F903F
:105700001F90189519BC1092C6020E94C52670CF32
:105710008091E30087FD93E09093C602B3CF1F9280
:105720000F920FB60F9211242F933F934F935F93D5
:105730006F937F938F939F93AF93BF93CF93DF9399
:10574000EF93FF93D091E900DF708091EC00C82FB8
:10575000C17080FDC0E81092E9008091F000877F61
:105760008093F00078940E94D32B1092E9008091EE
:10577000F00088608093F000CD2BCF70C093E900DB
:10578000FF91EF91DF91CF91BF91AF919F918F9159
:105790007F916F915F914F913F912F910F900FBE2D
:1057A0000F901F9018951F93CF93DF93CDB7DEB75F
:1057B000AA970FB6F894DEBF0FBECDBF87EC92E07C
:1057C0002091F100FC012193CF01F2E08F3C9F0773
:1057D000B9F70E942A278091E80083FF1EC18091BB
:1057E000C7029091C8029A3008F017C1E92FF0E083
:1057F000E452F24D0C94602D803899F0823809F013
:105800000CC18091CB028F70873008F006C1809365
:10581000E9008091EB0085FB882780F91092E90070
:1058200006C08091C3029091C40291118260909150
:10583000E800977F9093E8008093F1001092F100C8
:105840008091E8008E77E5C0882309F4D3C08230C8
:1058500009F0E3C08091C9028111D6C08091CB02CA
:105860008F702FEF280F263008F0D7C08093E90003
:105870002091EB0020FFC8C0933031F48091EB0001
:1058800080628093EB00C0C09091EB009061909398
:10589000EB0021E030E001C0220F8A95EAF7209367
:1058A000EA001092EA008091EB008860EACF811153
:1058B000B4C01091C9021F778091E3008078812BDA
:1058C0008093E3008091E800877F8093E8000E9446
:1058D000F0298091E80080FFFCCF8091E300806890
:1058E0008093E30082E0111183E08093C60295C0AB
:1058F0008058823008F091C08091C9029091CA020C
:105900008C3D23E09207A1F583E08A838AE28983B4
:105910004FB7F894DE01139620E03EE051E2E32F0A
:10592000F0E050935700E49120FF03C0E295EF7040
:105930003F5FEF708E2F90E0EA30C0F0C7968D93F6
:105940009D932F5F243159F74FBF8091E800877FE7
:105950008093E8006AE270E0CE0101960E94FF2881
:105960008091E8008B778093E80057C0C096E7CF1E
:105970006091CB027091CC02AE014F5F5F4F0E94ED
:105980002C28BC01892B09F448C09091E800977F2E
:105990009093E80089819A810E945D29E1CF803847
:1059A000E1F58091E800877F8093E8008091C20252
:1059B0008093F10045CF811130C09091C90292309F
:1059C00060F58091E800877F8093E8009093C202A1
:1059D0000E94F0298091C202882311F084E005C062
:1059E0008091E30087FDFACF81E08093C6020E9498
:1059F0001B2713C08091C902813079F481E0933074
:105A000009F080E08093C4021092E9008091E800E0
:105A1000877F8093E8000E94F0298091E80083FF4F
:105A20000AC08091E800877F8093E8008091EB00B6
:105A300080628093EB00AA960FB6F894DEBF0FBE8B
:105A4000CDBFDF91CF911F910895CF938091C60272
:105A50008823A1F0C091E900CF709091EC00892FCC
:105A6000817090FD80E8C82B1092E9008091E800D9
:105A700083FD0E94D32BCF70C093E900CF9108958E
:105A8000991B79E004C0991F961708F0961B881F90
:105A90007A95C9F78095089597FB072E16F4009420
:105AA00007D077FD09D00E94662D07FC05D03EF493
:105AB000909581959F4F0895709561957F4F0895BA
:105AC000EE0FFF1F0590F491E02D0994AA1BBB1B5C
:105AD00051E107C0AA1FBB1FA617B70710F0A61BEE
